:020000040800F2
:10000000005000208D28000881260008892600085D
:100010009126000899260008A1260008000000008B
:10002000000000000000000000000000A9260008F9
:10003000B526000800000000C1260008CD260008F3
:10004000D5280008D5280008D5280008D52800089C
:10005000D5280008D5280008D5280008D52800088C
:10006000D5280008D5280008D5280008D52800087C
:10007000D5280008D5280008D5280008D52800086C
:10008000D5280008D5280008D5280008D52800085C
:10009000D5280008D5280008D5280008D52800084C
:1000A000D5280008D5280008D5280008D52800083C
:1000B000D9260008D5280008D5280008D52800082A
:1000C000D5280008D5280008D5280008D52800081C
:1000D000D5280008D5280008D5280008D52800080C
:1000E000ED260008D5280008D528000800000000EB
:1000F0000000000000000000000000000000000000
:0C01000000000000000000005FF808F1A3
:1001100010B5054C237833B9044B13B10448AFF341
:1001200000800123237010BDE801002000000000C2
:10013000A093000808B5034B1BB103490348AFF374
:10014000008008BD00000000EC010020A093000822
:1001500010F8012B11F8013B012A28BF9A42F7D071
:10016000D01A7047034613F8012B002AFBD1181A46
:100170000138704781F0004102E000BF83F0004386
:1001800030B54FEA41044FEA430594EA050F08BF32
:1001900090EA020F1FBF54EA000C55EA020C7FEAF6
:1001A000645C7FEA655C00F0E2804FEA5454D4EB73
:1001B0005555B8BF6D420CDD2C4480EA020281EA3D
:1001C000030382EA000083EA010180EA020281EA75
:1001D0000303362D88BF30BD11F0004F4FEA0131C7
:1001E0004FF4801C4CEA113102D0404261EB4101D6
:1001F00013F0004F4FEA03334CEA133302D052425C
:1002000063EB430394EA050F00F0A780A4F1010417
:10021000D5F1200E0DDB02FA0EFC22FA05F2801851
:1002200041F1000103FA0EF2801843FA05F3594137
:100230000EE0A5F120050EF1200E012A03FA0EFCB6
:1002400028BF4CF0020C43FA05F3C01851EBE371E0
:1002500001F0004507D54FF0000EDCF1000C7EEBFD
:1002600000006EEB0101B1F5801F1BD3B1F5001F3B
:100270000CD349085FEA30004FEA3C0C04F101045A
:100280004FEA445212F5800F80F09A80BCF1004F83
:1002900008BF5FEA500C50F1000041EB045141EA05
:1002A000050130BD5FEA4C0C404141EB0101013CCE
:1002B00028BFB1F5801FE9D291F0000F04BF0146BD
:1002C0000020B1FA81F308BF2033A3F10B03B3F18F
:1002D00020020CDA0C3208DD02F1140CC2F10C021F
:1002E00001FA0CF021FA02F10CE002F11402D8BF7D
:1002F000C2F1200C01FA02F120FA0CFCDCBF41EA49
:100300000C019040E41AA2BF01EB0451294330BD17
:100310006FEA04041F3C1CDA0C340EDC04F11404F4
:10032000C4F1200220FA04F001FA02F340EA0300CB
:1003300021FA04F345EA030130BDC4F10C04C4F111
:10034000200220FA02F001FA04F340EA03002946F1
:1003500030BD21FA04F0294630BD94F0000F83F43B
:10036000801306BF81F480110134013D4EE77FEA1E
:10037000645C18BF7FEA655C29D094EA050F08BF6A
:1003800090EA020F05D054EA000C04BF194610464B
:1003900030BD91EA030F1EBF0021002030BD5FEA8F
:1003A000545C05D14000494128BF41F0004130BDB7
:1003B00014F580043CBF01F5801130BD01F000450B
:1003C00045F0FE4141F470014FF0000030BD7FEA7E
:1003D000645C1ABF194610467FEA655C1CBF0B4679
:1003E000024650EA013406BF52EA033591EA030F90
:1003F00041F4002130BD00BF90F0000F04BF002188
:10040000704730B54FF4806404F132044FF00005BA
:100410004FF0000150E700BF90F0000F04BF002133
:10042000704730B54FF4806404F1320410F0004599
:1004300048BF40424FF000013EE700BF42004FEA94
:10044000E2014FEA31014FEA02701FBF12F07F4311
:1004500093F07F4F81F06051704732F07F4208BFC8
:10046000704793F07F4F04BF41F40021704730B5CF
:100470004FF4607401F0004521F000411CE700BF1B
:1004800050EA010208BF704730B54FF000050AE09E
:1004900050EA010208BF704730B511F0004502D59F
:1004A000404261EB41014FF4806404F132045FEAA1
:1004B000915C3FF4D8AE4FF003025FEADC0C18BF4A
:1004C00003325FEADC0C18BF033202EBDC02C2F13C
:1004D000200300FA03FC20FA02F001FA03FE40EACE
:1004E0000E0021FA02F11444BDE600BF70B54FF0D2
:1004F000FF0C4CF4E06C1CEA11541DBF1CEA1355B0
:1005000094EA0C0F95EA0C0F00F0DEF82C4481EA17
:10051000030621EA4C5123EA4C5350EA013518BF37
:1005200052EA033541F4801143F4801338D0A0FB24
:1005300002CE4FF00005E1FB02E506F00042E0FBD1
:1005400003E54FF00006E1FB03569CF0000F18BFD7
:100550004EF0010EA4F1FF04B6F5007F64F540747F
:1005600004D25FEA4E0E6D4146EB060642EAC62112
:1005700041EA55514FEAC52040EA5E504FEACE2E7F
:10058000B4F1FD0C88BFBCF5E06F1ED8BEF1004F82
:1005900008BF5FEA500E50F1000041EB045170BDFE
:1005A00006F0004646EA010140EA020081EA030142
:1005B000B4EB5C04C2BFD4EB0C0541EA045170BD3E
:1005C00041F480114FF0000E013C00F3AB8014F1B8
:1005D000360FDEBF002001F0004170BDC4F1000401
:1005E000203C35DA0C341BDC04F11404C4F1200582
:1005F00000FA05F320FA04F001FA05F240EA0200DD
:1006000001F0004221F0004110EBD37021FA04F612
:1006100042EB06015EEA430E08BF20EAD37070BDCC
:10062000C4F10C04C4F1200500FA04F320FA05F02B
:1006300001FA04F240EA020001F0004110EBD3702D
:1006400041F100015EEA430E08BF20EAD37070BD9D
:10065000C4F1200500FA05F24EEA020E20FA04F376
:1006600001FA05F243EA020321FA04F001F0004125
:1006700021FA04F220EA020000EBD3705EEA430E96
:1006800008BF20EAD37070BD94F0000F0FD101F0C5
:100690000046400041EB010111F4801F08BF013CFE
:1006A000F7D041EA060195F0000F18BF704703F03C
:1006B0000046520043EB030313F4801F08BF013DC3
:1006C000F7D043EA0603704794EA0C0F0CEA13557F
:1006D00018BF95EA0C0F0CD050EA410618BF52EA39
:1006E0004306D1D181EA030101F000414FF000003F
:1006F00070BD50EA410606BF1046194652EA43064D
:1007000019D094EA0C0F02D150EA013613D195EAC0
:100710000C0F05D152EA03361CBF104619460AD108
:1007200081EA030101F0004141F0FE4141F4700112
:100730004FF0000070BD41F0FE4141F4780170BD02
:1007400070B54FF0FF0C4CF4E06C1CEA11541DBF67
:100750001CEA135594EA0C0F95EA0C0F00F0A7F869
:10076000A4EB050481EA030E52EA03354FEA013196
:1007700000F088804FEA03334FF0805545EA1313A9
:1007800043EA12634FEA022245EA111545EA106571
:100790004FEA00260EF000419D4208BF964244F108
:1007A000FD0404F5407402D25B084FEA3202B61A27
:1007B00065EB03055B084FEA32024FF480104FF4FB
:1007C000002CB6EB020E75EB030E22BFB61A75466F
:1007D00040EA0C005B084FEA3202B6EB020E75EB02
:1007E000030E22BFB61A754640EA5C005B084FEA6A
:1007F0003202B6EB020E75EB030E22BFB61A754637
:1008000040EA9C005B084FEA3202B6EB020E75EB41
:10081000030E22BFB61A754640EADC0055EA060E02
:1008200018D04FEA051545EA16754FEA06164FEA45
:10083000C30343EA52734FEAC2025FEA1C1CC0D1F1
:1008400011F4801F0BD141EA00014FF000004FF07E
:10085000004CB6E711F4801F04BF01430020B4F13F
:10086000FD0C88BFBCF5E06F3FF6AFAEB5EB030CF7
:1008700004BFB6EB020C5FEA500C50F1000041EBF4
:10088000045170BD0EF0004E4EEA113114EB5C04C1
:10089000C2BFD4EB0C0541EA045170BD41F4801194
:1008A0004FF0000E013C90E645EA060E8DE60CEA9C
:1008B000135594EA0C0F08BF95EA0C0F3FF43BAFB9
:1008C00094EA0C0F0AD150EA01347FF434AF95EA70
:1008D0000C0F7FF425AF104619462CE795EA0C0F54
:1008E00006D152EA03353FF4FDAE1046194622E721
:1008F00050EA410618BF52EA43067FF4C5AE50EAFB
:1009000041047FF40DAF52EA43057FF4EBAE12E7EA
:100910004FF0FF3C06E000BF4FF0010C02E000BFCB
:100920004FF0010C4DF804CD4FEA410C7FEA6C5CAE
:100930004FEA430C18BF7FEA6C5C1BD001B050EA51
:10094000410C0CBF52EA430C91EA030F02BF90EA3C
:10095000020F0020704710F1000F91EA030F58BFFB
:10096000994208BF90422CBFD8176FEAE37040F05D
:10097000010070474FEA410C7FEA6C5C02D150EAFB
:10098000013C07D14FEA430C7FEA6C5CD6D152EAB6
:10099000033CD3D05DF8040B704700BF844610467B
:1009A00062468C461946634600E000BF01B5FFF77A
:1009B000B7FF002848BF10F1000F01BD4DF808ED4A
:1009C000FFF7F4FF0CBF012000205DF808FB00BF1B
:1009D0004DF808EDFFF7EAFF34BF012000205DF875
:1009E00008FB00BF4DF808EDFFF7E0FF94BF0120C2
:1009F00000205DF808FB00BF4DF808EDFFF7CEFFC3
:100A000094BF012000205DF808FB00BF4DF808ED01
:100A1000FFF7C4FF34BF012000205DF808FB00BFD2
:100A20004FEA410C7FEA6C5C02D150EA013C0AD1EA
:100A30004FEA430C7FEA6C5C02D152EA033C02D1DC
:100A40004FF0000070474FF0010070474FEA41023D
:100A500012F5001215D211D56FF47873B3EB625210
:100A600012D94FEAC12343F0004343EA505311F037
:100A7000004F23FA02F018BF404270474FF00000C9
:100A8000704750EA013005D111F0004008BF6FF007
:100A9000004070474FF00000704700BF80B58EB037
:100AA0000AAFF860084611461A4603467B810B469A
:100AB0003B811346FB801D4B1B78002B19D03989D5
:100AC0007A890023089300230793002306930023C9
:100AD0000593BB8C04933B8C0393BB8B02933B8BA2
:100AE0000193FB8800930B46F968012000F020F881
:100AF00018E039897A89002308930023079300239B
:100B0000069300230593BB8C04933B8C0393BB8B10
:100B100002933B8B0193FB8800930B46F9680020FE
:100B200000F006F800BF1037BD4680BD0000002071
:100B300080B584B000AFB96011461A460346FB7316
:100B40000B46BB811346FB801A4ABB8913801A4AA5
:100B5000FB881380194A3B8B1380194ABB681360CA
:100B6000184ABB8B1380174A3B8C5380154ABB8CA9
:100B70009380144A3B8DD380124ABB8D1381114A56
:100B80003B8E53810F4ABB8E93810E4A3B8FD3819C
:100B9000FB7B002B03D00C4B00221A7002E00A4BA7
:100BA00010221A700421102000F010F800BF103736
:100BB000BD4680BD06020020080200200A02002077
:100BC0001C0200200C0200202002002080B586B00C
:100BD00000AF03460A46FB711346BB71BB79012B7C
:100BE00006D9864B1B7843F00803DAB2834B1A70A0
:100BF000834ABB791370FB79102B09D1BB79042B85
:100C000006D1502310224021002000F08FF906E089
:100C1000FA79FB7940334021002000F087F9794BC5
:100C20001B78002B09D0BB79012B06D1734B1B78A5
:100C300043F00403DAB2714B1A7000F0F5F80323A5
:100C40007B610123FB60704B1B78002B1BD06F4B2B
:100C50001A886F4B1B8813439AB26E4B1B88134341
:100C60009AB26D4B1B8813439AB26B4B5B8813434C
:100C70009AB2694B9B8813439AB2674BDB88134344
:100C80009BB2BB602AE0614B1A88614B1B881343FF
:100C90009AB2604B1B8813439AB25F4B1B88134375
:100CA0009AB25D4B5B8813439AB25B4B9B881343AC
:100CB0009AB2594BDB8813439AB2574B1B891343A3
:100CC0009AB2554B5B8913439AB2534B9B8913439A
:100CD0009AB2514BDB8913439BB2BB604F4B1B68ED
:100CE00007F108021146184602F0B6FB322001F067
:100CF00055FE4A4B1B68454A11880022184602F0EF
:100D00002FFD464B1B68434A11880022184602F00B
:100D100027FD3F4B1B88FF2B07D0404B1B683C4AED
:100D200011880022184602F01BFD344B1B7803F09B
:100D30001003002B15D1032000F0F8F9052001F075
:100D40002DFE032000F0F2F9052001F027FE03201C
:100D500000F0ECF9012001F021FE022000F0E6F99C
:100D60001DE0264B1B7843F02003DBB2184600F051
:100D700058F9052001F012FE204B1B7843F02003A8
:100D8000DBB2184600F04DF9012001F007FE1B4BC5
:100D90001B7843F02003DBB2184600F042F9174BF2
:100DA0001B7843F02003DBB2184600F03AF91C4BE5
:100DB00004221A701A4B1B7843F00403DAB2184B62
:100DC0001A70174B1B7843F00803DBB2184600F08B
:100DD00028F9012000F025F9022001F0DFFD114B78
:100DE00002221A700F4B1B7843F00403DBB2184643
:100DF00000F017F900BF1837BD4680BD2002002063
:100E0000230200200402002000000020060200202F
:100E1000080200200A0200200C0200201C02002010
:100E2000210200202202002080B487B000AF384B9E
:100E30001B68384A93420CD1374B9B69364A43F0C2
:100E400004039361344B9B6903F004037B617B696A
:100E500058E02F4B1B68314A93420CD12E4B9B69B3
:100E60002D4A43F0080393612B4B9B6903F0080361
:100E70003B613B6946E0264B1B68284A93420CD1F4
:100E8000254B9B69244A43F008039361224B9B69DD
:100E900003F00803FB60FB6834E01D4B1B68204A2D
:100EA00093420CD11C4B9B691B4A43F01003936186
:100EB000194B9B6903F01003BB60BB6822E0144B25
:100EC0001B68184A93420CD1134B9B69124A43F09A
:100ED00020039361104B9B6903F020037B607B68C8
:100EE00010E00B4B1B68104A93420BD10A4B9B69D5
:100EF000094A43F040039361074B9B6903F04003A9
:100F00003B603B6800BF1C37BD4680BC704700BFDC
:100F10001C0200200008014000100240000C0140AB
:100F200000100140001401400018014080B485B059
:100F300000AFF860B9607A603B60FB68DAB2094BD9
:100F40001A70BB68DAB2074B5A707B68DAB2054B8D
:100F50009A703B68DAB2034BDA7000BF1437BD46B3
:100F600080BC70472402002080B584B000AF0346E7
:100F70000A46FB711346BB710423FB60BB79FA6818
:100F80009A4203D8FB68DBB2013BBB710D4B1B7867
:100F9000BA799A4203D30B4B1B78013BBB71BB79E7
:100FA000094AD25CFB791344DBB25BB263F07F0386
:100FB0005BB2DBB2184600F034F800BF1037BD4614
:100FC00080BD00BF230200202402002080B586B02F
:100FD00000AF78607B68002B01D100231DE07B68A7
:100FE0007B617868FFF7BEF838610023FB600CE096
:100FF0007B695A1C7A611B78184600F020F803467A
:10100000002B08D0FB680133FB603B695A1E3A6134
:10101000002BEDD100E000BFFB6818461837BD4635
:1010200080BD80B582B000AF0346FB71FB79002123
:10103000184600F013F800BF0837BD4680BD80B5E4
:1010400082B000AF0346FB71FB790121184600F026
:1010500005F8012318460837BD4680BD80B582B02B
:1010600000AF03460A46FB711346BB71164B1B6863
:10107000164A1188BA79184602F072FB144B1B8885
:10108000FF2B07D0104B1B68114A1188002218460D
:1010900002F066FB0F4B1B7803F01003002B04D00B
:1010A000FB79184600F06CF809E0FB791B09DBB20C
:1010B000184600F03BF8FB79184600F037F800BFFF
:1010C0000837BD4680BD00BF1C020020060200207C
:1010D000080200202002002080B500AF114B1B68E1
:1010E000114A11880022184602F03AFB012001F053
:1010F00055FC0C4B1B680C4A11880122184602F063
:101100002FFB012001F04AFC064B1B68064A1188A0
:101110000022184602F024FB012001F03FFC00BF32
:1011200080BD00BF1C0200200A02002080B584B0F0
:1011300000AF0346FB710023FB6013E00E4B186801
:101140000E4AFB6832F81310FA79FB6842FA03F38F
:10115000DBB203F00103DBB21A4602F001FBFB68CD
:101160000133FB60FB68032BE8DDFFF7B5FF00BF31
:101170001037BD4680BD00BF1C0200200C020020BD
:1011800080B584B000AF0346FB710023FB6013E021
:101190000E4B18680E4AFB6832F81310FA79FB6898
:1011A00042FA03F3DBB203F00103DBB21A4602F0AA
:1011B000D7FAFB680133FB60FB68072BE8DDFFF71C
:1011C0008BFF00BF1037BD4680BD00BF1C02002052
:1011D0000C02002080B500AF012001F0DFFB0120F0
:1011E000FFF71FFF0220FFF71CFF00BF80BD0000BC
:1011F00080B483B000AF0346FB80FB88B3F5006F7B
:1012000002D1044B01221A6000BF0C37BD4680BCDE
:10121000704700BFF003002080B400AF514B1B6843
:10122000002B00F09A80504B9B681B0B03F00F03C0
:10123000002B03D14D4B37221A808BE04A4B9B6821
:101240001B0B03F00F03012B03D1484B34221A80F0
:1012500080E0454B9B681B0B03F00F03022B03D16F
:10126000424B31221A8075E03F4B9B681B0B03F009
:101270000F03032B08D13D4B3D4A126811461980DC
:101280000233120C1A7065E0374B9B681B0B03F09E
:101290000F03042B03D1354B38221A805AE0324B0E
:1012A0009B681B0B03F00F03052B03D12F4B35223B
:1012B0001A804FE02C4B9B681B0B03F00F03062B8F
:1012C00003D12A4B32221A8044E0274B9B681B0B28
:1012D00003F00F03072B03D1244B30221A8039E08F
:1012E000214B9B681B0B03F00F03082B03D11F4BF3
:1012F00039221A802EE01C4B9B681B0B03F00F0356
:10130000092B03D1194B36221A8023E0164B9B6818
:101310001B0B03F00F030A2B03D1144B33221A804B
:1013200018E0114B9B681B0B03F00F030E2B03D12E
:101330000E4B2B221A800DE00B4B9B681B0B03F00E
:101340000F030F2B03D1094B2D221A8002E0074B0C
:1013500000221A70034B00221A6000BFBD4680BCF9
:10136000704700BFF0030020000801400400002087
:10137000B893000880B500AF002202210A4802F0AD
:10138000EFF9012001F00AFB01220221064802F0D8
:10139000E7F9012001F002FB00220221024802F0DD
:1013A000DFF900BF80BD00BF0008014080B582B0FA
:1013B00000AF78607B681B68B3F1804F5BD17B68BE
:1013C0001B7F012B57D12E4B1B78002B1AD10021EC
:1013D000786804F029FA03462A4A1360284B012250
:1013E0001A707B681B681A6A7B681B6822F00A0205
:1013F0001A627B681B681A6A7B681B6842F00202EB
:101400001A6238E00021786804F00EFA03461E4A9A
:1014100013601D4B1A681B4B1B689A4207D91A4B65
:101420001A68184B1B68D31A184A136009E0164B48
:101430001A68144B1B68D31A03F57F43FF33134A12
:101440001360124B1B68124AA2FB03231B091A46A6
:10145000104B1A600A4B00221A707B681B681A6ACC
:101460007B681B6822F00A021A627B681A687B6834
:101470001B68126A1A6200BF0837BD4680BD00BFF4
:1014800000040020F4030020F8030020FC030020E7
:101490003FC5254304040020B0B5AEB004AF01F051
:1014A0001BFA4FF4806303934FF4007302934FF4DD
:1014B0008073019380230093202310220821BF48CA
:1014C000FFF7ECFA00F07EFC00F0BAFE00F032FD0F
:1014D00000F0D6FC00F09EFD00F012FE00F086FE4B
:1014E00000F00CFD0021B64803F07CFD0021B5485A
:1014F00003F07EFC0021B44803F07AFCB04803F00E
:10150000D5FB0023C7F8A4300023BB623223C7F801
:10151000943007F10C0300221A605A601A81AB491B
:10152000AB48FEF715FE0346002B40F00D8300216B
:101530000020FFF719FDA748FFF748FD0121002013
:10154000FFF712FDA448FFF741FD02210020FFF73D
:101550000BFDA248FFF73AFD03210020FFF704FD31
:101560009E48FFF733FD0123C7F89C30984B6E224D
:101570001A805CE0FFF750FE07F180030022194655
:10158000974802F0C9FF97F880301A4697F88130E3
:10159000194697F8823000930B469249924805F01D
:1015A000A1FD03210020FFF7DFFC8F48FFF70EFDB0
:1015B0008E498748FEF7CCFD0346002B10D1002151
:1015C0000020FFF7D1FC8A48FFF700FD0121002031
:1015D000FFF7CAFC8748FFF7F9FC0123C7F89830EA
:1015E00085497B48FEF7B4FD0346002B10D100214E
:1015F0000020FFF7B9FC8148FFF7E8FC012100203B
:10160000FFF7B2FC7E48FFF7E1FC0223C7F89830F1
:101610006E496F48FEF79CFD0346002B07D102235D
:10162000C7F89C30FFF7D6FD694B00221A70D7F837
:101630009C30012B9ED055E2FFF7EEFD07F18003B1
:1016400000221946664802F067FF97F880301A4674
:1016500097F88130194697F8823000930B4661491C
:10166000614805F03FFD03210020FFF77DFC5E4847
:10167000FFF7ACFCD7F89830012B75D10021002082
:10168000FFF772FC5F48FFF7A1FC01210020FFF784
:101690006BFC5D48FFF79AFC4C494D48FEF758FD3E
:1016A0000346002B42D107F12803184604F076FFC9
:1016B000C7F88800D7F88830312B21DCD7F888307C
:1016C000C7F8943007F12C03504A1C4615460FCD3D
:1016D0000FC495E80F0084E80F0007F12C031846AB
:1016E000FEF740FD03469AB207F12C014FF0FF339D
:1016F000474804F07FFD4FF47A7001F04FF90AE09B
:1017000002210020FFF730FC4248FFF75FFC4FF456
:101710007A7001F043F9002387F828300023C7F8D6
:101720009C30FFF757FD2A4B00221A70284B1B787C
:101730002F2B19D9264B1B78392B15D8244B5B78C6
:10174000002B11D107F128032149184605F037FD78
:101750001F4B00221A7001210920FFF705FC07F139
:1017600028031846FFF732FCD7F89830022B40F0D8
:10177000B98107F1080300221946194802F0CCFE8E
:1017800000210020FFF7F0FB234B1B68002B01D149
:10179000224B00E0224B1A462249134805F0A2FCD6
:1017A0001148FFF713FC01210020FFF7DDFB1A4B66
:1017B0001B68012B38D1194B37E000BF00080140EE
:1017C0006C020020B4020020FC020020B893000844
:1017D00004000020BC930008C8930008D8930008B8
:1017E00058020020E89300088C030020F8930008BA
:1017F000FC9300080C9400081C9400082094000836
:10180000309400083C9400084C9400085894000858
:1018100044030020789400080804002088940008FD
:101820008C94000898940008B14B1A46B149B2480C
:1018300005F058FCB048FFF7C9FB02210020FFF774
:1018400093FBAE4B1B68022B01D1AD4B00E0A84BC4
:101850001A46AC49A84805F045FCA748FFF7B6FB77
:10186000A949AA48FEF774FC0346002B10D1A34BEC
:101870001B68591CA64B83FB0132CB17D21A1346A7
:101880005B001344CA1A9D4B1A60A04B00221A70C9
:10189000A0499E48FEF75CFC0346002B10D1974BF5
:1018A0001B68991C9A4B83FB0132CB17D21A134643
:1018B0005B001344CA1A914B1A60944B00221A70B1
:1018C00095499248FEF744FC0346002B40F00A81FC
:1018D0008E4B00221A70914B00221A70FFF77AFC8F
:1018E000FFF79AFC854B1B68002B14D100210020C8
:1018F000FFF73AFB8A48FFF769FB01210020FFF759
:1019000033FB8848FFF762FB01210520FFF72CFB22
:101910008248FFF75BFB794B1B68012B14D1002138
:101920000020FFF721FB8048FFF750FB012100203A
:10193000FFF71AFB7D48FFF749FB01210420FFF761
:1019400013FB7648FFF742FB6C4B1B68022B14D14C
:1019500000210020FFF708FB7548FFF737FB012146
:101960000020FFF701FB7348FFF730FB0121042043
:10197000FFF7FAFA6948FFF729FB66496348FEF763
:10198000E7FB0346002B05D1644B00221A705F4B26
:1019900000221A705D4B1B782F2B15D95B4B1B78DF
:1019A000392B11D8594B5B78002B0DD15B48FEF7D2
:1019B000D9FB0346012B04D801225449574805F0AE
:1019C0000DFC524B00221A7053495048FEF7C0FBE1
:1019D0000346002B84D1514804F0E0FDC7F8840091
:1019E0000023C7F89030454B1B68002B0AD1D7F86D
:1019F0008430002B06DBD7F88430172B02DC012360
:101A0000C7F890303D4B1B68002B0AD0D7F88430C4
:101A1000002B06DBD7F884303B2B02DC0123C7F810
:101A20009030D7F89030002B48D03B1D07F10802CA
:101A30001268114619800233120C1A702F4B1B6862
:101A4000002B03D1D7F88430DBB23B712B4B1B68E2
:101A5000012B03D1D7F88430DBB27B71274B1B6895
:101A6000022B03D1D7F88430DBB2BB713B1D0022BF
:101A70001946314802F0B8FC07F12C032F4A1C46E6
:101A800015460FCD0FC495E8070084E8070007F15D
:101A90002C031846FEF766FB03469AB207F12C01A9
:101AA0004FF0FF33264804F0A5FB0023C7F89C3015
:101AB000164B00221A70FFF78DFB13E00221002065
:101AC000FFF752FA1F48FFF781FA4FF4487000F011
:101AD00065FF124B00221A700C4B00221A70FFF7A0
:101AE00079FBFDE6D7F89C30022B3FF4A5AD16E557
:101AF0008C940008A09400088C03002008040020A7
:101B000088940008A8940008F893000804000020B6
:101B1000565555551C940008B89300080C04002035
:101B2000B0940008C0940008C8940008D894000835
:101B3000E0940008F094000858020020F89400088F
:101B40004403002014950008FFF766FBFFF712FC22
:101B50008F4B1B68322B0FDD07F160038D49184650
:101B600005F0C0FA00210020FFF7FEF907F160033D
:101B70001846FFF72BFA10E0854B1A6807F160034F
:101B80008549184605F0AEFA00210020FFF7ECF970
:101B900007F160031846FFF719FAD7F89430002BC5
:101BA00020D07B4B1B68D7F894209A4203DA00239D
:101BB000C7F8A03016E0764B1B68002B03DC9F2390
:101BC000C7F8A0300EE0724B1A6813469B0013440E
:101BD0005B019A1AD7F8943092FBF3F3C3F19F0399
:101BE000C7F8A0306D4B1B68D7F8A0205A636C482B
:101BF00000F0D0FF4FF0FF31694801F079F803465B
:101C0000002B17D1664801F079F90346C7F8A430D4
:101C1000D7F8A400FEF700FC59A3D3E90023FEF790
:101C200065FC02460B4610461946FEF70FFF0346B9
:101C3000C7F8A430D7F8A430282B06DDD7F8A43095
:101C40003B2B02DC0023C7F88C30D7F8A400FEF74A
:101C5000E3FB4FF00002534BFEF748FC02460B46F5
:101C60001046194648A3D3E90023FEF787FA024637
:101C70000B4610461946FEF7E9FE0346C7F88C30BE
:101C800033E0474800F086FF4FF0FF31444801F051
:101C90002FF80346002B17D1414801F02FF90346D6
:101CA000C7F8A430D7F8A400FEF7B6FB34A3D3E9F5
:101CB0000023FEF71BFC02460B4610461946FEF7B2
:101CC000C5FE0346C7F8A430FFF784FA4FF4FA7054
:101CD00000F064FE00210020FFF746F93248FFF7CC
:101CE00075F94FF4FA7000F059FED7F8A430272B9D
:101CF000C7DDD7F88C30C3F19F022C4B1B685A63A9
:101D000007F17003D7F8A4202949184605F0EAF92D
:101D100002210020FFF728F907F170031846FFF7AA
:101D200055F907F11803D7F894202249184605F011
:101D3000D9F901210020FFF717F907F11803184618
:101D4000FFF744F907F18003002219461A4802F010
:101D5000E3FB97F880301A4697F88130194697F8D8
:101D6000823000930B461549154805F0BBF9032155
:101D70000020FFF7F9F81248FFF728F9FFF7CFBB6B
:101D8000E0BE0E9C33A2B43F0000000000E07140B2
:101D900004040020209500082C950008FC02002077
:101DA0002802002000001E4038950008B4020020E0
:101DB000449500085095000858020020E893000858
:101DC0008C03002080B594B000AF07F128032822CF
:101DD0000021184605F0EBF907F1140300221A6000
:101DE0005A609A60DA601A613B1D00221A605A60DC
:101DF0009A60DA600523BB624FF48033FB620023F4
:101E00003B6301237B630123BB6302237B644FF4A9
:101E10008033BB640023FB6407F12803184601F0FC
:101E2000DBFC0346002B01D000F086FA0F237B6118
:101E30000223BB610023FB6100233B6200237B6222
:101E400007F114030021184601F048FF0346002B58
:101E500001D000F071FA03237B604FF48073BB6004
:101E60000023FB603B1D184602F0C6F80346002B1A
:101E700001D000F061FA00BF5037BD4680BD0000C0
:101E800080B584B000AF3B1D00221A605A609A6092
:101E9000184B194A1A60174B00229A60154B002202
:101EA0001A73144B00221A75124B4FF46022DA6138
:101EB000104B00225A600F4B01221A610D4800F0AE
:101EC00091FD0346002B01D000F036FA02237B601F
:101ED0000123BB600023FB603B1D1946054801F050
:101EE00019F80346002B01D000F026FA00BF103786
:101EF000BD4680BD280200200024014080B500AF0F
:101F00000A4B0B4A1A60094B4FF0FF325A60074BDD
:101F10004FF480729A60054802F0DAF90346002B0C
:101F200001D000F009FA00BF80BD00BF58020020B8
:101F30000028004080B58AB000AF07F118030022E6
:101F40001A605A609A60DA6007F1100300221A6082
:101F50005A603B4600221A605A609A60DA602C4B45
:101F60004FF080421A602A4B0F225A60284B002201
:101F70009A60274B4FF6FF72DA60254B00221A61F8
:101F8000234B00229A61224802F040FE0346002BB8
:101F900001D000F0D1F94FF48053BB6107F1180371
:101FA00019461B4803F078FB0346002B01D000F0D4
:101FB000C3F9174802F0BEFF0346002B01D000F022
:101FC000BBF900233B6100237B6107F11003194635
:101FD0000F4804F04FF80346002B01D000F0ACF995
:101FE00000233B6001237B600023BB600023FB6078
:101FF0003B4600221946064803F0F0F90346002B41
:1020000001D000F099F900BF2837BD4680BD00BF60
:102010006C02002080B58EB000AF07F128030022CB
:102020001A605A609A60DA6007F1200300221A6091
:102030005A603B1D00221A605A609A60DA601A6189
:102040005A619A612C4B2D4A1A602B4B40F2E732B1
:102050005A60294B00229A60274B9F22DA60264B58
:1020600000221A61244B00229A61234802F0CEFD1F
:102070000346002B01D000F05FF94FF48053BB62A0
:1020800007F1280319461C4803F006FB0346002B02
:1020900001D000F051F9184802F052FE0346002B1F
:1020A00001D000F049F900233B6200237B6207F175
:1020B00020031946104803F0DDFF0346002B01D032
:1020C00000F03AF960237B600023BB600023FB60D3
:1020D00000237B613B1D00221946074803F01AFAD2
:1020E0000346002B01D000F027F9034800F028FA3E
:1020F00000BF3837BD4680BDB40200200004004058
:1021000080B58EB000AF07F1280300221A605A6034
:102110009A60DA6007F1200300221A605A603B1DC2
:1021200000221A605A609A60DA601A615A619A61F4
:102130002C4B2D4A1A602B4B40F2E7325A60294B48
:1021400000229A60274B9F22DA60264B00221A61F8
:10215000244B00229A61234802F058FD0346002BCD
:1021600001D000F0E9F84FF48053BB6207F1280377
:1021700019461C4803F090FA0346002B01D000F0EA
:10218000DBF8184802F0DCFD0346002B01D000F01C
:10219000D3F800233B6200237B6207F1200319463A
:1021A000104803F067FF0346002B01D000F0C4F88D
:1021B00060237B600023BB600023FB6000237B6106
:1021C0003B1D00221946074803F0A4F90346002BE3
:1021D00001D000F0B1F8034800F0B2F900BF383781
:1021E000BD4680BDFC0200200008004080B500AF65
:1021F000114B124A1A60104B4FF4E1325A600E4BE9
:1022000000229A600C4B0022DA600B4B00221A610C
:10221000094B0C225A61084B00229A61064B00229E
:10222000DA61054803F096FF0346002B01D000F069
:1022300083F800BF80BD00BF440300200048004079
:1022400080B588B000AF07F1100300221A605A6011
:102250009A60DA60354B9B69344A43F0100393610E
:10226000324B9B6903F01003FB60FB682F4B9B69AB
:102270002E4A43F0200393612C4B9B6903F020030B
:10228000BB60BB68294B9B69284A43F004039361F8
:10229000264B9B6903F004037B607B68234B9B699F
:1022A000224A43F008039361204B9B6903F0080323
:1022B0003B603B68002240F2BA711D4801F050FAC1
:1022C00040F2BA733B6101237B610023BB610223AF
:1022D000FB6107F110031946154801F0BDF84FF4F2
:1022E00000633B61134B7B610023BB6107F110036B
:1022F00019460F4801F0B0F84FF470433B610023DA
:102300007B610223BB6107F110031946084801F005
:10231000A3F800220021282001F067F8282001F00E
:1023200080F800BF2037BD4680BD00BF00100240CE
:10233000000801400000111080B400AF72B600BF69
:1023400000BFFDE780B485B000AF154B9B69144A10
:1023500043F001039361124B9B6903F00103BB60DF
:10236000BB680F4BDB690E4A43F08053D3610C4BC3
:10237000DB6903F080537B607B680A4B5B68FB6022
:10238000FB6823F0E063FB60FB6843F08063FB6065
:10239000044AFB68536000BF1437BD4680BC7047D9
:1023A000001002400000014080B588B000AF7860A6
:1023B00007F1100300221A605A609A60DA607B68A5
:1023C0001B68144A934221D1134B9B69124A43F470
:1023D00000739361104B9B6903F40073FB60FB680F
:1023E0000D4B9B690C4A43F0040393610A4B9B69B4
:1023F00003F00403BB60BB6804233B6103237B61E0
:1024000007F110031946054801F026F800BF2037F0
:10241000BD4680BD0024014000100240000801407C
:1024200080B584B000AF78607B681B680B4A93422C
:1024300010D101F0C5F90A4BDB69094A43F000638A
:10244000D361074BDB6903F00063FB60FB68054B5E
:1024500001221A6000BF1037BD4680BD0028004031
:10246000001002403C04424280B58AB000AF786060
:1024700007F1180300221A605A609A60DA607B68DC
:102480001B68B3F1804F2CD1294BDB69284A43F0FC
:102490000103D361264BDB6903F001037B617B6998
:1024A000234B9B69224A43F004039361204B9B69B1
:1024B00003F004033B613B690123BB610023FB6123
:1024C00000233B6207F1180319461A4800F0C4FFC5
:1024D000002200211C2000F088FF1C2000F0A1FF3A
:1024E00022E07B681B68144A93420CD1104BDB69D5
:1024F0000F4A43F00203D3610D4BDB6903F0020383
:10250000FB60FB6810E07B681B680C4A93420BD1B0
:10251000074BDB69064A43F00403D361044BDB69D4
:1025200003F00403BB60BB6800BF2837BD4680BD15
:102530000010024000080140000400400008004074
:1025400080B588B000AF786007F1100300221A60F0
:102550005A609A60DA607B681B681E4A934218D101
:102560001D4B9B691C4A43F0040393611A4B9B6902
:1025700003F00403FB60FB6840233B6102237B61A3
:102580000223FB6107F110031946144800F064FFB1
:102590001CE07B681B68124A934217D10E4B9B6963
:1025A0000D4A43F0080393610B4B9B6903F008034A
:1025B000BB60BB6840233B6102237B610223FB615C
:1025C00007F110031946074800F046FF00BF203707
:1025D000BD4680BD000400400010024000080140DC
:1025E00000080040000C014080B588B000AF786062
:1025F00007F1100300221A605A609A60DA607B6863
:102600001B681C4A934231D11B4BDB691A4A43F4C5
:102610008023D361184BDB6903F48023FB60FB68E4
:10262000154B9B69144A43F008039361124B9B6955
:1026300003F00803BB60BB684FF480633B61022377
:102640007B610323FB6107F1100319460B4800F07F
:1026500003FF4FF400633B6100237B610023BB61F8
:1026600007F110031946054800F0F6FE00BF2037B9
:10267000BD4680BD0048004000100240000C0140F3
:1026800080B400AF00BFFDE780B400AF00BFFDE73E
:1026900080B400AF00BFFDE780B400AF00BFFDE72E
:1026A00080B400AF00BFFDE780B400AF00BFBD46FF
:1026B00080BC704780B400AF00BFBD4680BC70478F
:1026C00080B400AF00BFBD4680BC704780B500AF8E
:1026D00000F048F900BF80BD80B500AF024802F0AD
:1026E0008DFD00BF80BD00BF6C02002080B500AF33
:1026F0004FF4006001F04CF800BF80BD80B400AF23
:1027000001231846BD4680BC704780B582B000AF3B
:102710007860396004F0C0FD034616221A604FF05D
:10272000FF3318460837BD4680BD80B582B000AF84
:1027300078604FF0FF317868FFF7E7FF00BFFDE7F3
:1027400080B586B000AFF860B9607A6000237B6125
:102750000AE0AFF300800146BB685A1CBA60CAB2F7
:102760001A707B6901337B617A697B689A42F0DB7E
:102770007B6818461837BD4680BD80B586B000AF6F
:10278000F860B9607A6000237B6109E0BB685A1C7D
:10279000BA601B781846AFF300807B6901337B6118
:1027A0007A697B689A42F1DB7B6818461837BD4628
:1027B00080BD80B483B000AF78604FF0FF3318461F
:1027C0000C37BD4680BC704780B483B000AF7860E2
:1027D00039603B684FF400525A60002318460C37AA
:1027E000BD4680BC704780B483B000AF78600123E1
:1027F00018460C37BD4680BC704780B485B000AF2A
:10280000F860B9607A60002318461437BD4680BC72
:102810007047000080B586B000AF7860144A154B51
:10282000D31A7B617B693B61134B1B68002B02D180
:10283000114B124A1A60104B1A687B6813443A69AC
:102840009A4207D204F028FD03460C221A604FF08A
:10285000FF3309E0084B1B68FB60074B1A687B6875
:102860001344054A1360FB6818461837BD4680BDFF
:102870000050002000040000100400206805002023
:1028800080B400AF00BFBD4680BC7047FFF7F8FFC3
:102890000B480C490C4A002302E0D458C4500433BE
:1028A000C4188C42F9D3094A094C002301E0136093
:1028B0000432A242FBD304F0F5FCFEF7EDFD7047B5
:1028C00000000020E801002020990008E801002015
:1028D00064050020FEE7000080B500AF084B1B68D0
:1028E000074A43F010031360032000F073FD0F202C
:1028F00000F008F8FFF726FD0023184680BD00BF52
:102900000020024080B582B000AF7860124B1A6898
:10291000124B1B7819464FF47A73B3FBF1F3B2FBF9
:10292000F3F3184600F08BFD0346002B01D0012382
:102930000EE07B680F2B0AD8002279684FF0FF3039
:1029400000F053FD064A7B681360002300E001237A
:1029500018460837BD4680BD140000201C0000202A
:102960001800002080B400AF054B1B781A46054BB9
:102970001B681344034A136000BFBD4680BC704708
:102980001C0000201404002080B400AF024B1B6820
:102990001846BD4680BC70471404002080B584B042
:1029A00000AF7860FFF7F0FFB8607B68FB60FB6802
:1029B000B3F1FF3F05D00A4B1B781A46FB6813445E
:1029C000FB6000BFFFF7E0FF0246BB68D31AFA685E
:1029D0009A42F7D800BF00BF1037BD4680BD00BF88
:1029E0001C00002080B586B000AF78600023FB7526
:1029F00000233B610023BB600023FB607B68002B4E
:102A000001D10123BEE07B689B68002B7B689B6A39
:102A1000002B09D17B680022DA627B68002283F8F0
:102A200024207868FFF7C0FC786800F0C5FB0346F7
:102A3000FB757B689B6A03F01003002B40F09980C4
:102A4000FB7D002B40F095807B689B6A23F48853C4
:102A500023F0020343F002027B689A627B685A68A3
:102A60007B68DB691A437B681B7B5B001343BA6896
:102A70001343BB607B689B68B3F5807F03D07B68A2
:102A80009B68012B02D14FF4807300E000233A6968
:102A900013433B617B681B7D012B19D17B681B7B3A
:102AA000002B09D17B689B69013B5A033B691343A7
:102AB00043F400633B610BE07B689B6A43F02002B8
:102AC0007B689A627B68DB6A43F001027B68DA62AA
:102AD0007B681B685B6823F469417B681B683A6903
:102AE0000A435A607B681B689A68284B13407A68CF
:102AF0001268B9680B4393607B689B68B3F5807F6D
:102B000003D07B689B68012B04D17B681B69013B68
:102B10001B05FB607B681B68DB6A23F470017B6824
:102B20001B68FA680A43DA627B681B689A68184B6C
:102B30001340BA689A420BD17B680022DA627B6844
:102B40009B6A23F0030343F001027B689A6218E05A
:102B50007B689B6A23F0120343F010027B689A6241
:102B60007B68DB6A43F001027B68DA620123FB7554
:102B700007E07B689B6A43F010027B689A6201233E
:102B8000FB75FB7D18461837BD4680BDFDF7E1FF9C
:102B9000FE0E1FFF80B584B000AF78600023FB738A
:102BA0007B6893F82430012B01D1022398E07B68E5
:102BB000012283F82420786800F0A4FA0346FB730E
:102BC000FB7B002B40F087807B689B6A23F440737B
:102BD00023F0010343F480727B689A627B681B6870
:102BE000414A934205D1414B5B6803F47023002BAB
:102BF00015D17B689B6A23F480127B689A627B689C
:102C00001B685B6803F48063002B26D07B689B6A9B
:102C100023F4405343F480527B689A621DE07B6842
:102C20009B6A43F480127B689A627B681B682F4A18
:102C3000934204D07B681B682B4A93420DD12B4BE7
:102C40005B6803F48063002B07D07B689B6A23F4E6
:102C5000405343F480527B689A627B689B6A03F41A
:102C60008053002B06D07B68DB6A23F006027B686A
:102C7000DA6202E07B680022DA627B68002283F875
:102C800024207B681B686FF002021A607B681B6857
:102C90009B6803F46023B3F5602F13D17B681B6836
:102CA000114A934205D1114B5B6803F47023002B4A
:102CB00008D17B681B689A687B681B6842F4A00295
:102CC0009A600CE07B681B689A687B681B6842F41A
:102CD00080129A6003E07B68002283F82420FB7B4B
:102CE00018461037BD4680BD002801400024014031
:102CF00090B587B000AF7860396000237B61002316
:102D0000FB6000233B61FFF73FFE78617B681B6837
:102D10009B6803F48073002B0BD07B689B6A43F0A5
:102D200020027B689A627B68002283F824200123BA
:102D3000D3E07B681B685B6803F48073002B31D1A0
:102D40007B681B68DB6A03F47003002B2AD121E047
:102D50003B68B3F1FF3F1DD03B68002B07D0FFF766
:102D600013FE02467B69D31A3A689A4212D27B68F4
:102D70001B681B6803F00203002B0BD17B689B6A66
:102D800043F004027B689A627B68002283F8242067
:102D90000323A2E07B681B681B6803F00203002B7F
:102DA000D6D070E04F4B1C68022001F0DBF90346DF
:102DB000B4FBF3F27B681B6819694B4B0B40002B8B
:102DC00018D17B681B68D968484B0B40002B11D188
:102DD0007B681B681969464B0B40002B08D17B6848
:102DE0001B68D968434B0B40002B01D1142320E012
:102DF00029231EE07B681B6819693D4B0B40002BA3
:102E000006D17B681B68D9683A4B0B40002B0DD06C
:102E10007B681B681969384B0B40002B08D17B6815
:102E20001B68D968344B0B40002B01D1542300E0C0
:102E3000FC2302FB03F33B6121E03B68B3F1FF3F5E
:102E40001AD03B68002B07D0FFF79EFD02467B6936
:102E5000D31A3A689A420FD2FB683A699A420BD960
:102E60007B689B6A43F004027B689A627B6800225D
:102E700083F82420032330E0FB680133FB60FB6808
:102E80003A699A42D9D87B681B686FF012021A60BF
:102E90007B689B6A43F400727B689A627B681B685C
:102EA0009B6803F46023B3F5602F15D17B681B7B0F
:102EB000002B11D17B689B6A23F480727B689A6235
:102EC0007B689B6A03F48053002B05D17B689B6A67
:102ED00043F001027B689A62002318461C37BD4606
:102EE00090BD00BF14000020244992242449920080
:102EF00092244912922449004992240080B483B05C
:102F000000AF78607B681B68DB6C18460C37BD46E9
:102F100080BC704780B485B000AF78603960002312
:102F2000FB730023BB607B6893F82430012B01D135
:102F30000223DCE07B68012283F824203B685B6885
:102F4000062B1CD87B681B68596B3B685A68134674
:102F50009B001344053B1F2202FA03F3DB43194095
:102F60003B6818683B685A6813469B001344053B4E
:102F700000FA03F27B681B680A435A633CE03B6833
:102F80005B680C2B1CD87B681B68196B3B685A6804
:102F900013469B001344233B1F2202FA03F3DB4337
:102FA00019403B6818683B685A6813469B001344F5
:102FB000233B00FA03F27B681B680A431A631BE099
:102FC0007B681B68D96A3B685A6813469B001344A8
:102FD000413B1F2202FA03F3DB4319403B681868A8
:102FE0003B685A6813469B001344413B00FA03F2C6
:102FF0007B681B680A43DA623B681B68092B1CD993
:103000007B681B68D9683B681A6813465B001344E9
:103010001E3B072202FA03F3DB4319403B68986822
:103020003B681A6813465B0013441E3B00FA03F228
:103030007B681B680A43DA6019E07B681B681969C2
:103040003B681A6813465B001344072202FA03F335
:10305000DB4319403B6898683B681A6813465B007D
:10306000134400FA03F27B681B680A431A613B6849
:103070001B68102B03D03B681B68112B32D17B6877
:103080001B681D4A934225D17B681B689B6803F42B
:103090000003002B26D17B681B689A687B681B683D
:1030A00042F400029A603B681B68102B1AD1134B44
:1030B0001B68134AA2FB03239A0C13469B0013447C
:1030C0005B00BB6002E0BB68013BBB60BB68002BE0
:1030D000F9D107E07B689B6A43F020027B689A6223
:1030E0000123FB737B68002283F82420FB7B1846B6
:1030F0001437BD4680BC70470024014014000020F6
:1031000083DE1B4380B584B000AF78600023FB6092
:103110000023BB607B681B689B6803F00103012BE5
:1031200040D07B681B689A687B681B6842F001028C
:103130009A601F4B1B681F4AA2FB03239B0CBB60BA
:1031400002E0BB68013BBB60BB68002BF9D1FFF715
:103150001BFCF8601FE0FFF717FC0246FB68D31A60
:10316000022B18D97B681B689B6803F00103012BB5
:1031700011D07B689B6A43F010027B689A627B687F
:10318000DB6A43F001027B68DA627B68002283F825
:103190002420012307E07B681B689B6803F0010380
:1031A000012BD8D1002318461037BD4680BD00BF83
:1031B0001400002083DE1B4380B584B000AF78602C
:1031C0000023FB607B681B689B6803F00103012BF5
:1031D0002ED17B681B689A687B681B6822F001020D
:1031E0009A60FFF7D1FBF8601BE0FFF7CDFB0246CA
:1031F000FB68D31A022B14D97B681B689B6803F009
:103200000103012B0DD17B689B6A43F010027B68A0
:103210009A627B68DB6A43F001027B68DA62012311
:1032200007E07B681B689B6803F00103012BDCD07F
:10323000002318461037BD4680BD000080B485B01D
:1032400000AF78607B6803F00703FB600C4BDB6822
:10325000BB60BA684FF6FF031340BB60FB681A02FD
:10326000BB68134343F0BF6343F40033BB60044ABD
:10327000BB68D36000BF1437BD4680BC704700BF39
:1032800000ED00E080B400AF044BDB681B0A03F0E4
:1032900007031846BD4680BC704700BF00ED00E044
:1032A00080B483B000AF0346FB7197F90730002B61
:1032B0000BDBFB7903F01F02064997F907305B0926
:1032C000012000FA02F241F8232000BF0C37BD466E
:1032D00080BC704700E100E080B483B000AF0346DB
:1032E0003960FB7197F90730002B0ADB3B68DAB2D3
:1032F0000C4997F907301201D2B20B4483F800232E
:103300000AE03B68DAB20849FB7903F00F03043B9B
:103310001201D2B20B441A7600BF0C37BD4680BCF6
:10332000704700BF00E100E000ED00E080B489B02C
:1033300000AFF860B9607A60FB6803F00703FB61D7
:10334000FB69C3F10703042B28BF0423BB61FB699E
:103350000433062B02D9FB69033B00E000237B61A9
:103360004FF0FF32BB6902FA03F3DA43BB681A403D
:103370007B699A404FF0FF317B6901FA03F3D9432F
:103380007B680B40134318462437BD4680BC70470A
:1033900080B582B000AF78607B68013BB3F1807F7D
:1033A00001D301230FE00A4A7B68013B53600F21E0
:1033B0004FF0FF30FFF790FF054B00229A60044B5F
:1033C00007221A60002318460837BD4680BD00BF9B
:1033D00010E000E080B582B000AF78607868FFF759
:1033E0002DFF00BF0837BD4680BD80B586B000AF59
:1033F0000346B9607A60FB7300237B61FFF742FFED
:1034000078617A68B9687869FFF790FF024697F9A2
:103410000F3011461846FFF75FFF00BF1837BD4653
:1034200080BD80B582B000AF0346FB7197F90730CD
:103430001846FFF735FF00BF0837BD4680BD80B591
:1034400082B000AF78607868FFF7A2FF03461846A5
:103450000837BD4680BD000080B48BB000AF7860F7
:10346000396000237B6200233B6269E101227B6AB1
:1034700002FA03F3FB613B681B68FA691340BB6106
:10348000BA69FB699A4240F058813B685B689A4A86
:1034900093425ED0984A934275D8984A934258D046
:1034A000964A93426FD8964A934252D0944A934296
:1034B00069D8944A93424CD0924A934263D8924A34
:1034C000934246D0904A93425DD8122B2AD8122BB1
:1034D00059D801A252F823F0533500082D350008C1
:1034E0003F3500088135000887350008873500081A
:1034F00087350008873500088735000887350008BC
:1035000087350008873500088735000887350008AB
:1035100087350008873500088735000835350008ED
:1035200049350008794A934213D02CE03B68DB68A8
:103530003B6229E03B68DB6804333B6224E03B6884
:10354000DB6808333B621FE03B68DB680C333B629F
:103550001AE03B689B68002B02D104233B6213E016
:103560003B689B68012B05D108233B627B68FA69A5
:103570001A6109E008233B627B68FA695A6103E03B
:1035800000233B6200E000BFBB69FF2B01D87B68D2
:1035900001E07B6804337B61BB69FF2B02D87B6A47
:1035A0009B0002E07B6A083B9B003B617B691A68D9
:1035B0000F213B6901FA03F3DB431A40396A3B6987
:1035C00001FA03F31A437B691A603B685B6803F0F6
:1035D0008053002B00F0B1804D4B9B694C4A43F067
:1035E000010393614A4B9B6903F00103BB60BB6815
:1035F000484A7B6A9B08023352F82330FB607B6A9F
:1036000003F003039B000F2202FA03F3DB43FA6883
:103610001340FB607B68404A934213D07B683F4A6B
:1036200093420DD07B683E4A934207D07B683D4A67
:10363000934201D1032306E0042304E0022302E0C5
:10364000012300E000237A6A02F003029200934013
:10365000FA681343FB602F497B6A9B080233FA68C0
:1036600041F823203B685B6803F48013002B06D0ED
:103670002D4B9A682C49BB6913438B6006E02A4B9B
:103680009A68BB69DB43284913408B603B685B68E1
:1036900003F40013002B06D0234BDA682249BB69E0
:1036A0001343CB6006E0204BDA68BB69DB431E495D
:1036B0001340CB603B685B6803F40033002B06D0FB
:1036C000194B5A681849BB6913434B6006E0164B07
:1036D0005A68BB69DB43144913404B603B685B6825
:1036E00003F48033002B21D00F4B1A680E49BB69BD
:1036F00013430B6021E000BF0000321000003110C6
:103700000000221000002110000012100000111013
:10371000001002400000014000080140000C014080
:103720000010014000140140000401400B4B1A68D6
:10373000BB69DB43094913400B607B6A01337B6241
:103740003B681A687B6A22FA03F3002B7FF48EAE83
:1037500000BF00BF2C37BD4680BC7047000401404D
:1037600080B483B000AF78600B467B8013467B70DB
:103770007B78002B03D07A887B681A6103E07B8812
:103780001A047B681A6100BF0C37BD4680BC7047C5
:1037900080B582B000AF0346FB80084B5A69FB88B6
:1037A0001340002B06D0054AFB885361FB8818465E
:1037B000FDF71EFD00BF0837BD4680BD0004014077
:1037C00080B400AF034B01221A6000BFBD4680BC2D
:1037D000704700BF20000E4280B586B000AF786011
:1037E0007B68002B01D1012372E27B681B6803F028
:1037F0000103002B00F08780924B5B6803F00C0301
:10380000042B0CD08F4B5B6803F00C03082B12D1F8
:103810008C4B5B6803F48033B3F5803F0BD1894B4D
:103820001B6803F40033002B6CD07B685B68002BB3
:1038300068D101234CE27B685B68B3F5803F06D119
:10384000804B1B687F4A43F4803313602EE07B6813
:103850005B68002B0CD17B4B1B687A4A23F48033C6
:103860001360784B1B68774A23F4802313601DE0B4
:103870007B685B68B3F5A02F0CD1724B1B68714A53
:1038800043F4802313606F4B1B686E4A43F480330C
:1038900013600BE06B4B1B686A4A23F480331360A0
:1038A000684B1B68674A23F4802313607B685B685E
:1038B000002B13D0FFF768F8386108E0FFF764F8D1
:1038C00002463B69D31A642B01D9032300E25D4B06
:1038D0001B6803F40033002BF0D014E0FFF754F81A
:1038E000386108E0FFF750F802463B69D31A642BB1
:1038F00001D90323ECE1534B1B6803F40033002B85
:10390000F0D100E000BF7B681B6803F00203002BCE
:1039100063D04C4B5B6803F00C03002B0BD0494B7E
:103920005B6803F00C03082B1CD1464B5B6803F467
:103930008033002B16D1434B1B6803F00203002B8E
:1039400005D07B681B69012B01D00123C0E13D4BF1
:103950001B6823F0F8027B685B69DB00394913437D
:103960000B603AE07B681B69002B20D0364B0122AC
:103970001A60FFF709F8386108E0FFF705F802461A
:103980003B69D31A022B01D90323A1E12D4B1B68FC
:1039900003F00203002BF0D02A4B1B6823F0F8023F
:1039A0007B685B69DB00274913430B6015E0264BFE
:1039B00000221A60FEF7E8FF386108E0FEF7E4FF36
:1039C00002463B69D31A022B01D9032380E11D4B28
:1039D0001B6803F00203002BF0D17B681B6803F027
:1039E0000803002B3AD07B689B69002B19D0174B3A
:1039F00001221A60FEF7C8FF386108E0FEF7C4FF35
:103A000002463B69D31A022B01D9032360E10D4B17
:103A10005B6A03F00203002BF0D0012000F0CEFA25
:103A20001CE00A4B00221A60FEF7AEFF38610FE07F
:103A3000FEF7AAFF02463B69D31A022B08D90323DB
:103A400046E100BF001002400000424280044242B2
:103A5000924B5B6A03F00203002BE9D17B681B6881
:103A600003F00403002B00F0A6800023FB758B4BB2
:103A7000DB6903F08053002B0DD1884BDB69874A4B
:103A800043F08053D361854BDB6903F08053BB6007
:103A9000BB680123FB75824B1B6803F48073002B0A
:103AA00018D17F4B1B687E4A43F480731360FEF786
:103AB0006BFF386108E0FEF767FF02463B69D31AE7
:103AC000642B01D9032303E1754B1B6803F4807356
:103AD000002BF0D07B68DB68012B06D16F4B1B6A93
:103AE0006E4A43F0010313622DE07B68DB68002B14
:103AF0000CD16A4B1B6A694A23F001031362674BBE
:103B00001B6A664A23F0040313621CE07B68DB68CF
:103B1000052B0CD1614B1B6A604A43F0040313620E
:103B20005E4B1B6A5D4A43F0010313620BE05B4B83
:103B30001B6A5A4A23F001031362584B1B6A574A07
:103B400023F0040313627B68DB68002B15D0FEF7BB
:103B50001BFF38610AE0FEF717FF02463B69D31AE4
:103B600041F28832934201D90323B1E04B4B1B6AE7
:103B700003F00203002BEED014E0FEF705FF3861DE
:103B80000AE0FEF701FF02463B69D31A41F2883290
:103B9000934201D903239BE0404B1B6A03F00203CD
:103BA000002BEED1FB7D012B05D13C4BDB693B4A61
:103BB00023F08053D3617B68DB69002B00F08780A2
:103BC000364B5B6803F00C03082B61D07B68DB6924
:103BD000022B46D1334B00221A60FEF7D5FE386126
:103BE00008E0FEF7D1FE02463B69D31A022B01D949
:103BF00003236DE0294B1B6803F00073002BF0D109
:103C00007B681B6AB3F5803F08D1244B5B6823F4C3
:103C100000327B689B68214913434B601F4B5B68F4
:103C200023F474127B68196A7B685B6A0B431B4937
:103C300013434B601B4B01221A60FEF7A5FE38614F
:103C400008E0FEF7A1FE02463B69D31A022B01D918
:103C500003233DE0114B1B6803F00073002BF0D0F1
:103C600035E0104B00221A60FEF78EFE386108E046
:103C7000FEF78AFE02463B69D31A022B01D90323C1
:103C800026E0064B1B6803F00073002BF0D11EE00A
:103C90007B68DB69012B07D1012319E0001002408A
:103CA00000700040600042420B4B5B68FB60FB68A9
:103CB00003F480327B681B6A9A4206D1FB6803F4E6
:103CC00070127B685B6A9A4201D0012300E00023F6
:103CD00018461837BD4680BD0010024080B584B03C
:103CE00000AF786039607B68002B01D10123D0E000
:103CF0006A4B1B6803F007033A689A4210D9674B76
:103D00001B6823F0070265493B6813430B60634B54
:103D10001B6803F007033A689A4201D00123B8E018
:103D20007B681B6803F00203002B20D07B681B68B4
:103D300003F00403002B05D0594B5B68584A43F449
:103D4000E06353607B681B6803F00803002B05D019
:103D5000534B5B68524A43F460535360504B5B686B
:103D600023F0F0027B689B684D4913434B607B68EE
:103D70001B6803F00103002B40D07B685B68012BBC
:103D800007D1474B1B6803F40033002B15D10123E7
:103D90007FE07B685B68022B07D1414B1B6803F017
:103DA0000073002B09D1012373E03D4B1B6803F026
:103DB0000203002B01D101236BE0394B5B6823F038
:103DC00003027B685B68364913434B60FEF7DCFDFA
:103DD000F8600AE0FEF7D8FD0246FB68D31A41F20C
:103DE0008832934201D9032353E02D4B5B6803F0E3
:103DF0000C027B685B689B009A42EBD1274B1B68E7
:103E000003F007033A689A4210D2244B1B6823F050
:103E1000070222493B6813430B60204B1B6803F0E9
:103E200007033A689A4201D0012332E07B681B689D
:103E300003F00403002B08D0194B5B6823F4E06205
:103E40007B68DB68164913434B607B681B6803F093
:103E50000803002B09D0124B5B6823F460527B6887
:103E60001B69DB000E4913434B6000F021F802464A
:103E70000B4B5B681B0903F00F030A49CB5C22FA6A
:103E800003F3094A1360094B1B681846FEF73AFD15
:103E9000002318461037BD4680BD00BF00200240F9
:103EA0000010024060950008140000201800002057
:103EB00080B487B000AF0023FB600023BB60002309
:103EC0007B6100237B6000233B611E4B5B68FB60D2
:103ED000FB6803F00C03042B02D0082B03D027E06F
:103EE000194B3B6127E0FB689B0C03F00F03174A5B
:103EF000D35C7B60FB6803F48033002B10D0114B44
:103F00005B685B0C03F00103114AD35CBB607B6808
:103F10000D4A03FB02F2BB68B2FBF3F37B6104E0E2
:103F20007B680C4A02FB03F37B617B693B6102E027
:103F3000054B3B6100BF3B6918461C37BD4680BC42
:103F4000704700BF0010024000127A007895000808
:103F50008895000800093D0080B400AF024B1B6843
:103F60001846BD4680BC70471400002080B500AFE5
:103F7000FFF7F2FF0246054B5B681B0A03F00703DD
:103F80000349CB5C22FA03F3184680BD00100240BF
:103F90007095000880B500AFFFF7DEFF0246054BC5
:103FA0005B68DB0A03F007030349CB5C22FA03F3E7
:103FB000184680BD001002407095000880B485B09E
:103FC00000AF78600A4B1B680A4AA2FB03235B0A16
:103FD0007A6802FB03F3FB6000BFFB685A1EFA60BD
:103FE000002BF9D100BF00BF1437BD4680BC70471D
:103FF00014000020D34D621080B586B000AF786009
:1040000000233B610023FB607B681B6803F0010316
:10401000002B7DD00023FB754F4BDB6903F08053F1
:10402000002B0DD14C4BDB694B4A43F08053D361DD
:10403000494BDB6903F08053BB60BB680123FB7510
:10404000464B1B6803F48073002B18D1434B1B684D
:10405000424A43F480731360FEF796FC386108E02F
:10406000FEF792FC02463B69D31A642B01D9032365
:104070006DE03A4B1B6803F48073002BF0D0364B95
:104080001B6A03F44073FB60FB68002B2ED07B6837
:104090005B6803F44073FA689A4227D02E4B1B6A80
:1040A00023F44073FB602E4B01221A602C4B00223C
:1040B0001A60294AFB681362FB6803F00103002BB6
:1040C00014D0FEF761FC38610AE0FEF75DFC0246A1
:1040D0003B69D31A41F28832934201D9032336E077
:1040E0001D4B1B6A03F00203002BEED01A4B1B6A18
:1040F00023F440727B685B68174913430B62FB7DB6
:10410000012B05D1144BDB69134A23F08053D36193
:104110007B681B6803F00203002B08D00E4B5B6822
:1041200023F440427B689B680B4913434B607B68D8
:104130001B6803F01003002B08D0074B5B6823F4C7
:1041400080027B68DB68044913434B6000231846F8
:104150001837BD4680BD00BF00100240007000400F
:104160004004424280B588B000AF786000237B6194
:104170000023FB6100233B610023FB600023BB6144
:104180007B68102B0AD07B68102B00F28A807B683A
:10419000012B45D07B68022B75D082E0464B5B68D3
:1041A000FB60454B1B6803F08073002B7BD0FB68E2
:1041B0009B0C03F00F03414AD35C3B61FB6803F4A3
:1041C0008033002B15D03C4B5B685B0C03F0010384
:1041D0003B4AD35C7B61FB6803F48033002B0DD03A
:1041E000384A7B69B2FBF3F23B6902FB03F3FB61E4
:1041F00004E03B69344A02FB03F3FB612E4B5B682E
:1042000003F48003B3F5800F02D1FB69BB614AE080
:10421000FB695B002D4AA2FB03235B08BB6142E004
:10422000254B1B6AFB60FB6803F44073B3F5807F8A
:1042300008D1FB6803F00203002B03D04FF40043C6
:10424000BB611FE0FB6803F44073B3F5007F09D145
:10425000194B5B6A03F00203002B03D049F640437D
:10426000BB610FE0FB6803F44073B3F5407F1CD1E2
:10427000114B1B6803F40033002B16D04FF224437C
:10428000BB6112E011E0FFF785FE02460A4B5B6856
:104290009B0B03F0030301335B00B2FBF3F3BB6141
:1042A00004E000BF02E000BF00E000BFBB691846A9
:1042B0002037BD4680BD00BF001002408C9500082D
:1042C0009C95000800127A0000093D00ABAAAAAA3A
:1042D00080B584B000AF78600023FB607B68002B62
:1042E00001D101237AE07B685B7CDBB2002B05D136
:1042F0007B6800221A747868FEF792F87B680222C5
:104300005A74786800F0E0F90346002B04D07B680B
:1043100004225A74012361E0786800F099FA034698
:10432000002B04D07B6804225A74012356E07B687A
:104330001B685A687B681B6822F007025A607B681A
:104340009B68002B05D0274B1B6B264A23F00103EB
:104350001363244BDB6A23F460727B689B682149FA
:104360001343CB627B685B68B3F1FF3F03D07B688C
:104370005B68FB600EE00120FFF7F4FEF860FB686D
:10438000002B04D17B6804225A74012326E0FB68C9
:10439000013BFB60FB681A0C7B681B6802F00F0294
:1043A0009A607B681B68FA6892B2DA60786800F0FD
:1043B00077FA0346002B04D07B6804225A74012349
:1043C0000CE07B680022DA737B6801225A737B68F9
:1043D00001229A737B6801225A7400231846103711
:1043E000BD4680BD006C004090B587B000AFF8605E
:1043F000B9607A6000237B6100233B61FB68002B7E
:1044000002D0BB68002B01D1012380E0FB681B7C3C
:10441000012B01D102237AE0FB6801221A74FB68A8
:1044200002225A747B68002B13D1BB681B781A4692
:104430004FF4616303FB02F2BB685B7819460B46DD
:104440001B015B1A9B001344BA68927813447B618A
:104450001EE0BB681B78184600F067FA03461A4650
:104460004FF4616303FB02F4BB685B78184600F00D
:104470005CFA03461A4613461B019B1A9B001C4418
:10448000BB689B78184600F050FA034623447B61D2
:104490007969F86800F075F90346002B07D0FB68CE
:1044A00004225A74FB6800221A7401232FE0FB686F
:1044B0001B685A68FB681B6822F005025A60F8689E
:1044C00000F086F938613B69B3F1FF3F18D03A69D3
:1044D0007B699A4214D23B6903F5A83303F5C07394
:1044E0003B613969F86800F08CF90346002B07D06E
:1044F000FB6804225A74FB6800221A74012306E048
:10450000FB6801225A74FB6800221A7400231846C3
:104510001C37BD4690BD000080B588B000AFF86084
:10452000B9607A600023BB610023FB6100237B61DB
:1045300000233B61FB68002B02D0BB68002B01D13C
:104540000123B5E0FB681B685B6803F00403002BE4
:1045500001D00123ACE0F86800F0E3F8B861BB6972
:10456000554AA2FB0323DB0A3B61BA69524BA3FB0A
:104570000213DB0A4FF4616101FB03F3D31A4F4AC4
:10458000A2FB03235B09DAB2BB685A70BB694A4AD3
:10459000A2FB0312D20A4FF4616101FB02F29A1AE4
:1045A000464BA3FB021359090B461B015B1A9B00E8
:1045B000D11ACAB2BB689A703B69172B55D93B69AF
:1045C0003F4AA2FB03231B097B6139693C4BA3FBD8
:1045D00001231A0913465B001344DB00CA1AD2B246
:1045E000BB681A70F86800F0F3F8F861FB69B3F182
:1045F000FF3F08D0FA69BB699A4204D9FA69BB69DE
:10460000D31AFB6102E04FF0FF33FB617B692D4A57
:1046100002FB03F3BA69D31ABB61B969F86800F009
:10462000B0F80346002B01D0012341E0FB69B3F150
:10463000FF3F0CD0FA69BB691344FB61F969F86864
:1046400000F0DFF80346002B0AD0012330E0F969BF
:10465000F86800F0D6F80346002B01D0012327E0CC
:104660007969F86800F07EF903E03B69DAB2BB686B
:104670001A707B68002B1AD0BB681B78184600F0B4
:1046800037F903461A46BB681A70BB685B78184650
:1046900000F02EF903461A46BB685A70BB689B7837
:1046A000184600F025F903461A46BB689A700023A5
:1046B00018462037BD4680BDC5B3A2918988888839
:1046C000ABAAAAAA8051010080B584B000AF78607F
:1046D0000023FB607B68002B01D101231DE07B6878
:1046E0001B685A687B681B6822F008025A60FEF754
:1046F0004BF9F86009E0FEF747F90246FB68D31A68
:10470000B3F57A7F01D9032307E07B681B685B68F8
:1047100003F00803002BEED0002318461037BD46E7
:1047200080BD80B487B000AF786000237B82002317
:104730003B820023FB8100237B617B681B689B69B4
:104740007B827B681B68DB69FB817B681B689B69DC
:104750003B827A8A3B8A9A4208D03B8A1A047B6859
:104760001B68DB699BB213437B6104E07B8A1A04FC
:10477000FB8913437B617B6918461C37BD4680BCAF
:10478000704780B584B000AF786039600023FB7358
:10479000786800F05DF80346002B02D00123FB731C
:1047A00011E07B681B683A68120C9A617B681B6891
:1047B0003A6892B2DA61786800F072F80346002B2A
:1047C00001D00123FB73FB7B18461037BD4680BD2B
:1047D00080B485B000AF78600023FB810023BB81EB
:1047E0007B681B681B6AFB817B681B685B6ABB81FB
:1047F000FB891A04BB89134318461437BD4680BC95
:10480000704780B584B000AF786039600023FB73D7
:10481000786800F01DF80346002B02D00123FB73DB
:1048200011E07B681B683A68120C1A627B681B688F
:104830003A6892B25A62786800F032F80346002B68
:1048400001D00123FB73FB7B18461037BD4680BDAA
:1048500080B584B000AF78600023FB60FEF794F869
:10486000F86009E0FEF790F80246FB68D31AB3F54A
:104870007A7F01D903230FE07B681B685B6803F034
:104880002003002BEED07B681B685A687B681B688E
:1048900042F010025A60002318461037BD4680BD12
:1048A00080B584B000AF78600023FB607B681B6834
:1048B0005A687B681B6822F010025A60FEF764F8A1
:1048C000F86009E0FEF760F80246FB68D31AB3F51A
:1048D0007A7F01D9032307E07B681B685B6803F0DC
:1048E0002003002BEED0002318461037BD4680BDB4
:1048F00080B485B000AF0346FB710023FB6005E088
:10490000FB680133FB60FB790A3BFB71FB79092BE8
:10491000F6D8FB68DBB21B01DAB2FB791343DBB2DA
:1049200018461437BD4680BC704780B485B000AFD0
:104930000346FB710023FB60FB791B09DBB21A46BF
:1049400013469B0013445B00FB60FB7903F00F03ED
:10495000DAB2FB68DBB21344DBB218461437BD464B
:1049600080BC704780B586B000AF786039600023A6
:104970007B6100233B610023FB600023BB607B68FD
:10498000DB7B7B617B685B7B3B617B689B7BFB604C
:104990000023BB606FE03B69012B11D03B69032B07
:1049A0000ED03B69052B0BD03B69072B08D03B6928
:1049B000082B05D03B690A2B02D03B690C2B17D181
:1049C000FB681E2B03D8FB680133FB6050E03B699A
:1049D0000C2B05D03B6901333B610123FB6047E0B1
:1049E00001233B610123FB607B6901337B613FE075
:1049F0003B69042B08D03B69062B05D03B69092B8A
:104A000002D03B690B2B0CD1FB681D2B03D8FB6834
:104A10000133FB602CE03B6901333B610123FB6008
:104A200026E03B69022B23D1FB681B2B03D8FB68D4
:104A30000133FB601CE0FB681C2B11D17B699BB22E
:104A4000184600F039F80346002B03D0FB68013309
:104A5000FB600DE03B6901333B610123FB6007E034
:104A6000FB681D2B04D13B6901333B610123FB60D3
:104A7000BB680133BB60BA683B689A428BD37B69E1
:104A8000DAB27B68DA733B69DAB27B685A73FB6827
:104A9000DAB27B689A733B69DBB2FA68D2B2194624
:104AA000786900F03BF803461A467B681A7300BF2A
:104AB0001837BD4680BD000080B483B000AF034608
:104AC000FB80FB8803F003039BB2002B01D0002383
:104AD0001DE0FB88104AA2FB03125209642101FB6E
:104AE00002F29B1A9BB2002B01D001230FE0FB883E
:104AF000094AA2FB0312D2094FF4C87101FB02F26A
:104B00009B1A9BB2002B01D1012300E00023184621
:104B10000C37BD4680BC70471F85EB5180B485B013
:104B200000AF78600B46FB701346BB700023BB6080
:104B30000023FB607B6803F5FA63BB60FB78022B04
:104B40002DD8FA7813465B001344DB009B1A2C4ADD
:104B5000A2FB03235A08BB781A44BB681A44BB68FB
:104B6000013B9B081A44BB68013B2649A1FB031388
:104B70005B09D21ABB68013B2249A1FB0313DB0985
:104B800013441A1D204BA3FB0213D11A49080B44EE
:104B900099080B46DB005B1AD31AFB6029E0FA7810
:104BA00013465B001344DB009B1A154AA2FB032348
:104BB0005A08BB781A44BB681A44BB689B081A445D
:104BC000BB681049A1FB03135B09D21ABB680D49EE
:104BD000A1FB0313DB0913449A1C0B4BA3FB021329
:104BE000D11A49080B4499080B46DB005B1AD31A0B
:104BF000FB60FB68DBB218461437BD4680BC7047CB
:104C0000398EE3381F85EB512549922480B582B057
:104C100000AF78607B68002B01D1012341E07B6805
:104C200093F83D30DBB2002B06D17B68002283F87D
:104C30003C207868FDF718FC7B68022283F83D2051
:104C40007B681A687B6804331946104600F054FEEE
:104C50007B68012283F846207B68012283F83E208E
:104C60007B68012283F83F207B68012283F8402083
:104C70007B68012283F841207B68012283F842206F
:104C80007B68012283F843207B68012283F844205B
:104C90007B68012283F845207B68012283F83D2050
:104CA000002318460837BD4680BD000080B485B09B
:104CB00000AF78607B6893F83D30DBB2012B01D008
:104CC000012332E07B68022283F83D207B681B6869
:104CD000184A93420ED07B681B68B3F1804F09D00D
:104CE0007B681B68144A934204D07B681B68134A94
:104CF000934211D17B681B689B6803F00703FB603C
:104D0000FB68062B10D07B681B681A687B681B68E1
:104D100042F001021A6007E07B681B681A687B6832
:104D20001B6842F001021A60002318461437BD4682
:104D300080BC7047002C0140000400400008004087
:104D400080B582B000AF78607B68002B01D1012371
:104D500041E07B6893F83D30DBB2002B06D17B68E5
:104D6000002283F83C20786800F039F87B68022242
:104D700083F83D207B681A687B6804331946104627
:104D800000F0BAFD7B68012283F846207B6801228F
:104D900083F83E207B68012283F83F207B68012254
:104DA00083F840207B68012283F841207B68012240
:104DB00083F842207B68012283F843207B6801222C
:104DC00083F844207B68012283F845207B68012218
:104DD00083F83D20002318460837BD4680BD80B4C7
:104DE00083B000AF786000BF0C37BD4680BC704711
:104DF00080B584B000AF786039603B68002B09D182
:104E00007B6893F83E30DBB2012B14BF01230023F3
:104E1000DBB222E03B68042B09D17B6893F83F307A
:104E2000DBB2012B14BF01230023DBB215E03B688A
:104E3000082B09D17B6893F84030DBB2012B14BFFB
:104E400001230023DBB208E07B6893F84130DBB23A
:104E5000012B14BF01230023DBB2002B01D001235F
:104E60005EE03B68002B04D17B68022283F83E2081
:104E700013E03B68042B04D17B68022283F83F20B7
:104E80000BE03B68082B04D17B68022283F84020AA
:104E900003E07B68022283F841207B681B680122C3
:104EA0003968184601F0C1F87B681B681E4A9342B6
:104EB00007D17B681B685A6C7B681B6842F4004210
:104EC0005A647B681B68184A93420ED07B681B6843
:104ED000B3F1804F09D07B681B68144A934204D019
:104EE0007B681B68124A934211D17B681B689B68E0
:104EF00003F00703FB60FB68062B10D07B681B6880
:104F00001A687B681B6842F001021A6007E07B6840
:104F10001B681A687B681B6842F001021A60002354
:104F200018461037BD4680BD002C014000040040EB
:104F30000008004080B582B000AF78607B68002B2D
:104F400001D1012341E07B6893F83D30DBB2002BB7
:104F500006D17B68002283F83C20786800F039F89D
:104F60007B68022283F83D207B681A687B680433E3
:104F70001946104600F0C0FC7B68012283F84620E9
:104F80007B68012283F83E207B68012283F83F2062
:104F90007B68012283F840207B68012283F841204E
:104FA0007B68012283F842207B68012283F843203A
:104FB0007B68012283F844207B68012283F8452026
:104FC0007B68012283F83D20002318460837BD4640
:104FD00080BD80B483B000AF786000BF0C37BD46A1
:104FE00080BC704780B584B000AF78603960002322
:104FF000FB733B68002B04D17B6893F83E30DBB237
:1050000013E03B68042B04D17B6893F83F30DBB29C
:105010000BE03B68082B04D17B6893F84030DBB28F
:1050200003E07B6893F84130DBB2BB733B68002B35
:1050300004D17B6893F84230DBB213E03B68042B69
:1050400004D17B6893F84330DBB20BE03B68082B5C
:1050500004D17B6893F84430DBB203E07B6893F8BB
:105060004530DBB27B73BB7B012B02D17B7B012BF9
:1050700001D00123B8E03B68002B04D17B680222F9
:1050800083F83E2013E03B68042B04D17B680222A6
:1050900083F83F200BE03B68082B04D17B68022299
:1050A00083F8402003E07B68022283F841203B68BC
:1050B000002B04D17B68022283F8422013E03B6876
:1050C000042B04D17B68022283F843200BE03B6869
:1050D000082B04D17B68022283F8442003E07B681C
:1050E000022283F845203B680C2B41D801A252F8DC
:1050F00023F000BF295100087151000871510008C8
:10510000715100083B5100087151000871510008AD
:10511000715100084D51000871510008715100088B
:10512000715100085F5100087B681B68DA687B6872
:105130001B6842F00202DA601DE07B681B68DA68D7
:105140007B681B6842F00402DA6014E07B681B682D
:10515000DA687B681B6842F00802DA600BE07B6863
:105160001B68DA687B681B6842F01002DA6002E0B4
:105170000123FB7300BFFB7B002B34D17B681B68D2
:1051800001223968184600F050FF7B681B68184AF6
:1051900093420ED07B681B68B3F1804F09D07B68C7
:1051A0001B68144A934204D07B681B68124A9342DE
:1051B00011D17B681B689B6803F00703BB60BB6869
:1051C000062B10D07B681B681A687B681B6842F04E
:1051D00001021A6007E07B681B681A687B681B681D
:1051E00042F001021A60FB7B18461037BD4680BDB5
:1051F000002C0140000400400008004080B584B04D
:1052000000AF78607B681B68DB68FB607B681B68AD
:105210001B69BB60BB6803F00203002B20D0FB6856
:1052200003F00203002B1BD07B681B686FF00202A7
:105230001A617B6801221A777B681B689B6903F0FF
:105240000303002B03D07868FCF7B0F805E078681A
:1052500000F037FB786800F03DFB7B6800221A778E
:10526000BB6803F00403002B20D0FB6803F00403A9
:10527000002B1BD07B681B686FF004021A617B68EF
:1052800002221A777B681B689B6903F44073002B2A
:1052900003D07868FCF78AF805E0786800F011FB25
:1052A000786800F017FB7B6800221A77BB6803F070
:1052B0000803002B20D0FB6803F00803002B1BD051
:1052C0007B681B686FF008021A617B6804221A77FA
:1052D0007B681B68DB6903F00303002B03D078684D
:1052E000FCF764F805E0786800F0EBFA786800F005
:1052F000F1FA7B6800221A77BB6803F01003002BD9
:1053000020D0FB6803F01003002B1BD07B681B68C8
:105310006FF010021A617B6808221A777B681B689D
:10532000DB6903F44073002B03D07868FCF73EF888
:1053300005E0786800F0C5FA786800F0CBFA7B6881
:1053400000221A77BB6803F00103002B0CD0FB6826
:1053500003F00103002B07D07B681B686FF001028C
:105360001A61786800F0A4FABB6803F08003002B90
:105370000CD0FB6803F08003002B07D07B681B6810
:105380006FF080021A61786800F0DBFEBB6803F002
:105390004003002B0CD0FB6803F04003002B07D028
:1053A0007B681B686FF040021A61786800F09BFA16
:1053B000BB6803F02003002B0CD0FB6803F0200334
:1053C000002B07D07B681B686FF020021A61786899
:1053D00000F0AEFE00BF1037BD4680BD80B586B080
:1053E00000AFF860B9607A600023FB75FB6893F842
:1053F0003C30012B01D1022388E0FB68012283F8B5
:105400003C207B68002B1BD1FB681868BB681968BF
:10541000BB685A68BB68DB6800F064FCFB681B680B
:105420009A69FB681B6822F00C029A61FB681B6892
:105430009969BB689A68FB681B680A439A6160E0D7
:105440007B68042B1CD1FB681868BB681968BB68B3
:105450005A68BB68DB6800F0CDFCFB681B689A6982
:10546000FB681B6822F440629A61FB681B689969BB
:10547000BB689B681A02FB681B680A439A6140E09C
:105480007B68082B1BD1FB681868BB681968BB6870
:105490005A68BB68DB6800F018FDFB681B68DA69B6
:1054A000FB681B6822F00C02DA61FB681B68D96993
:1054B000BB689A68FB681B680A43DA6121E07B6875
:1054C0000C2B1CD1FB681868BB681968BB685A684C
:1054D000BB68DB6800F034FDFB681B68DA69FB68B9
:1054E0001B6822F44062DA61FB681B68D969BB68FB
:1054F0009B681A02FB681B680A43DA6101E001231A
:10550000FB75FB68002283F83C20FB7D18461837AA
:10551000BD4680BD80B586B000AFF860B9607A60E6
:105520000023FB75FB6893F83C30012B01D102236B
:10553000AEE0FB68012283F83C207B680C2B00F274
:105540009F8001A252F823F07D5500088156000883
:105550008156000881560008BD5500088156000894
:105560008156000881560008FF5500088156000842
:1055700081560008815600083F560008FB681B68EA
:10558000B968184600F026FAFB681B689A69FB6840
:105590001B6842F008029A61FB681B689A69FB6805
:1055A0001B6822F004029A61FB681B689969BB685A
:1055B0001A69FB681B680A439A6164E0FB681B6810
:1055C000B968184600F06CFAFB681B689A69FB68BA
:1055D0001B6842F400629A61FB681B689A69FB6869
:1055E0001B6822F480629A61FB681B689969BB683A
:1055F0001B691A02FB681B680A439A6143E0FB6857
:105600001B68B968184600F0B5FAFB681B68DA69D0
:10561000FB681B6842F00802DA61FB681B68DA6904
:10562000FB681B6822F00402DA61FB681B68D96919
:10563000BB681A69FB681B680A43DA6123E0FB68F0
:105640001B68B968184600F0FFFAFB681B68DA6946
:10565000FB681B6842F40062DA61FB681B68DA6968
:10566000FB681B6822F48062DA61FB681B68D969F9
:10567000BB681B691A02FB681B680A43DA6102E017
:105680000123FB7500BFFB68002283F83C20FB7DF3
:1056900018461837BD4680BD80B584B000AF78602D
:1056A00039600023FB737B6893F83C30012B01D1F8
:1056B0000223B4E07B68012283F83C207B6802224D
:1056C00083F83D207B681B689B68BB60BB6823F048
:1056D0007703BB60BB6823F47F43BB607B681B68B8
:1056E000BA689A603B681B68B3F5005F3ED0B3F5BB
:1056F000005F00F28780B3F5805F00F08680B3F52D
:10570000805F7FD8702B1AD0702B7BD8602B50D045
:10571000602B77D8502B3CD0502B73D8402B58D0CF
:10572000402B6FD8302B64D0302B6BD8202B60D01F
:10573000202B67D8002B5CD0102B5AD062E07B68FE
:1057400018683B6899683B685A683B68DB6800F0FA
:105750004DFC7B681B689B68BB60BB6843F07703AC
:10576000BB607B681B68BA689A604FE07B6818680A
:105770003B6899683B685A683B68DB6800F036FC18
:105780007B681B689A687B681B6842F480429A6059
:105790003CE07B6818683B6859683B68DB681A46E0
:1057A00000F0FAFA7B681B685021184600F004FCF0
:1057B0002CE07B6818683B6859683B68DB681A46D0
:1057C00000F054FB7B681B686021184600F0F4FB76
:1057D0001CE07B6818683B6859683B68DB681A46C0
:1057E00000F0DAFA7B681B684021184600F0E4FB01
:1057F0000CE07B681A683B681B681946104600F08D
:10580000DBFB03E00123FB7300E000BF7B680122A8
:1058100083F83D207B68002283F83C20FB7B184600
:105820001037BD4680BD000080B485B000AF786001
:1058300039600023FB603B680C2B31D801A252F881
:1058400023F000BF79580008A1580008A1580008AB
:10585000A158000883580008A1580008A158000862
:10586000A15800088D580008A1580008A158000848
:10587000A1580008975800087B681B685B6BFB60A9
:105880000FE07B681B689B6BFB600AE07B681B6812
:10589000DB6BFB6005E07B681B681B6CFB6000E05A
:1058A00000BFFB6818461437BD4680BC704700BF78
:1058B00080B483B000AF786000BF0C37BD4680BCB9
:1058C000704780B483B000AF786000BF0C37BD462E
:1058D00080BC704780B483B000AF786000BF0C37E5
:1058E000BD4680BC704780B483B000AF786000BF15
:1058F0000C37BD4680BC704780B485B000AF78607F
:1059000039607B681B68FB607B682F4A93420BD031
:105910007B68B3F1804F07D07B682C4A934203D059
:105920007B682B4A934208D1FB6823F07003FB602D
:105930003B685B68FA681343FB607B68224A9342CA
:105940000BD07B68B3F1804F07D07B681F4A93422E
:1059500003D07B681E4A934208D1FB6823F440734E
:10596000FB603B68DB68FA681343FB60FB6823F06D
:1059700080023B685B691343FB607B68FA681A60CE
:105980003B689A687B68DA623B681A687B689A624F
:105990007B680D4A934203D13B681A697B681A639E
:1059A0007B6801225A617B681B6903F00103002BAD
:1059B00005D07B681B6923F001027B681A6100BF78
:1059C0001437BD4680BC7047002C014000040040E5
:1059D0000008004080B487B000AF786039607B6811
:1059E0001B6A7B617B681B6A23F001027B681A6279
:1059F0007B685B683B617B689B69FB60FB6823F0AD
:105A00007003FB60FB6823F00303FB603B681B68CB
:105A1000FA681343FB607B6923F002037B613B68F8
:105A20009B687A6913437B617B681C4A93420CD163
:105A30007B6923F008037B613B68DB687A69134369
:105A40007B617B6923F004037B617B68134A93428B
:105A500011D13B6923F480733B613B6923F40073EC
:105A60003B613B685B693A6913433B613B689B69F7
:105A70003A6913433B617B683A695A607B68FA680C
:105A80009A613B685A687B685A637B687A691A62D4
:105A900000BF1C37BD4680BC704700BF002C0140D2
:105AA00080B487B000AF786039607B681B6A7B6127
:105AB0007B681B6A23F010027B681A627B685B6854
:105AC0003B617B689B69FB60FB6823F4E043FB6000
:105AD000FB6823F44073FB603B681B681B02FA6899
